{
    "_format": "hh-sol-artifact-1",
    "contractName": "Whitelist",
    "sourceName": "contracts/Whitelist.sol",
    "abi": [
        {
            "inputs": [
                {
                    "internalType": "uint8",
                    "name": "_maxWhitelistedAddresses",
                    "type": "uint8"
                }
            ],
            "stateMutability": "nonpayable",
            "type": "constructor"
        },
        {
            "inputs": [],
            "name": "addAddressToWhitelist",
            "outputs": [],
            "stateMutability": "nonpayable",
            "type": "function"
        },
        {
            "inputs": [],
            "name": "maxWhitelistedAddresses",
            "outputs": [
                {
                    "internalType": "uint8",
                    "name": "",
                    "type": "uint8"
                }
            ],
            "stateMutability": "view",
            "type": "function"
        },
        {
            "inputs": [],
            "name": "numAddressesWhitelisted",
            "outputs": [
                {
                    "internalType": "uint8",
                    "name": "",
                    "type": "uint8"
                }
            ],
            "stateMutability": "view",
            "type": "function"
        },
        {
            "inputs": [
                {
                    "internalType": "address",
                    "name": "",
                    "type": "address"
                }
            ],
            "name": "whitelistedAddresses",
            "outputs": [
                {
                    "internalType": "bool",
                    "name": "",
                    "type": "bool"
                }
            ],
            "stateMutability": "view",
            "type": "function"
        }
    ],
    "bytecode": "0x608060405234801561001057600080fd5b506040516103b23803806103b283398101604081905261002f91610048565b6000805460ff191660ff92909216919091179055610072565b60006020828403121561005a57600080fd5b815160ff8116811461006b57600080fd5b9392505050565b610331806100816000396000f3fe608060405234801561001057600080fd5b506004361061004c5760003560e01c806306c933d81461005157806331a72188146100895780634011d7cd146100a85780638e7314d9146100ba575b600080fd5b61007461005f366004610272565b60016020526000908152604090205460ff1681565b60405190151581526020015b60405180910390f35b6000546100969060ff1681565b60405160ff9091168152602001610080565b60005461009690610100900460ff1681565b6100c26100c4565b005b3360009081526001602052604090205460ff1615610169576040517f08c379a000000000000000000000000000000000000000000000000000000000815260206004820152602360248201527f53656e6465722068617320616c7265616479206265656e2077686974656c697360448201527f746564000000000000000000000000000000000000000000000000000000000060648201526084015b60405180910390fd5b60005460ff8082166101009092041610610205576040517f08c379a000000000000000000000000000000000000000000000000000000000815260206004820152602b60248201527f4d6f7265206164647265737365732063616e742062652061646465642c206c6960448201527f6d697420726561636865640000000000000000000000000000000000000000006064820152608401610160565b336000908152600160208190526040822080547fffffffffffffffffffffffffffffffffffffffffffffffffffffffffffffff00168217905581549091908290610258908290610100900460ff166102af565b92506101000a81548160ff021916908360ff160217905550565b60006020828403121561028457600080fd5b813573ffffffffffffffffffffffffffffffffffffffff811681146102a857600080fd5b9392505050565b600060ff821660ff84168060ff038211156102f3577f4e487b7100000000000000000000000000000000000000000000000000000000600052601160045260246000fd5b01939250505056fea26469706673582212207cf8a1c4c9a5341bee2a542ecb0679c5a7e1a8327a7ed382c14bd6ff97c5591c64736f6c63430008070033",
    "linkReferences": {},
    "deployedLinkReferences": {}
}